:020000040800F2
:10000000001000209D010008290400082B040008AE
:100010002F04000833040008370400080000000023
:100020000000000000000000000000003B04000889
:100030003D040008000000003F040008050400081B
:10004000B7010008B7010008B7010008B7010008B0
:10005000B7010008B7010008B7010008B7010008A0
:10006000B7010008B7010008B7010008B701000890
:10007000B7010008B7010008B7010008B701000880
:10008000B7010008B7010008B7010008B701000870
:10009000B7010008B7010008B7010008B701000860
:1000A000B7010008B7010008B7010008B701000850
:1000B000B7010008B7010008B7010008B701000840
:1000C000B7010008B7010008B7010008B701000830
:1000D000B7010008C9050008B7010008B70100080A
:1000E000B7010008B7010008B701000800F002F8E6
:1000F00000F045F80AA090E8000C82448344AAF17D
:100100000107DA4501D100F03AF8AFF2090EBAE87A
:100110000F0013F0010F18BFFB1A43F0010318473B
:100120000028000020280000103A24BF78C878C1B9
:10013000FAD8520724BF30C830C144BF04680C60ED
:10014000704700000023002400250026103A28BF35
:1001500078C1FBD8520728BF30C148BF0B60704739
:10016000642901F05F82002070471FB59DE80300FD
:1001700001F05CFB01F02CFB1FBD10B510BD01F0C0
:10018000A7FC1146FFF7F1FF00F046F801F0C5FCAF
:1001900003B4FFF7F2FF03BC01F094FC0948804769
:1001A00009480047FEE7FEE7FEE7FEE7FEE7FEE759
:1001B000FEE7FEE7FEE7FEE704480549054A064B71
:1001C000704700004B130008ED000008000A0020F3
:1001D00000100020000C0020000C00207FB5054618
:1001E000484802680068401C464B47A118606846B2
:1001F00001F0D0F94549C1F804D00C46444A916851
:10020000D068D26812681368224698473D48006853
:10021000401C3C4908607FBD1FB500F0EDF84FF46D
:100220007A7000F0C7F800BF00BF4FF46140394951
:100230004860486800F048F900BF00203549C1F81F
:10024000DC04C1F8E004C1F8E804C1F8E40400BF2C
:100250002F4A00BF0EE001F2144353F8203043B997
:1002600001F2144343F8202000F17D039360D16034
:1002700003E0401C1928EEDB00BF2649264A002077
:100280000DE001F58F6353F820303BB901F58F6322
:1002900043F8202000F16403536003E0401C192858
:1002A000EFDB00BF1DA30FCB8DE80F0005E0194861
:1002B00002F038F80A2000F07DF8F8E72DE9F04167
:1002C000124801F0BFFD134802F0BCF9124C17A50B
:1002D000AFF2F706012719491948206004F10C0014
:1002E00001F0B0FDA0F10C046661A761A56000BF3C
:1002F000074814A1054A002301604260036100BF62
:10030000BDE8F08108000020256400000000002006
:1003100088050020400000206C05002068656C6C9A
:100320006F20776F726C64210000000073746D5F42
:100330007375627363726962650000008C27000840
:100340006027000873746D5F7075626C6973680074
:1003500010B5002807DA0A07140E2F4A00F00F0321
:100360001B1FD45403E00A07130E2C4A135410BD6C
:1003700010B52B4800684FF47A71B0FBF1F4B4F17A
:10038000807F01D3012011E024F07F40401E4FF018
:10039000E02148610F214FF0FF30FFF7D9FF002027
:1003A0004FF0E021886107200861002008B100BFFC
:1003B000FEE710BD1B4A1268111800BF194A1268E7
:1003C0008A42FBD9704708B54FF4806000F05CF9B1
:1003D00025208DF8000002208DF8010000208DF806
:1003E000020001208DF80300684600F052F9002158
:1003F000481EFFF7ADFF08BD10B5FFF7E4FFFFF79C
:10040000B7FF10BD07480068401C064908607047E8
:10041000044800687047000018ED00E000E400E0C8
:100420002C0000200C000020704700BFFEE700BF3A
:10043000FEE700BFFEE700BFFEE77047704770476A
:1004400008B5012144F2040000F0A8FC4FF400704C
:10045000ADF8000018208DF8030003208DF802008D
:100460006946814800F0DEF94FF48060ADF8000085
:1004700004208DF8030069467B4800F0D3F908BDDD
:100480001FB5044600940020ADF80400ADF8060046
:10049000ADF80800ADF80C000C20ADF80A00694674
:1004A000724800F022FD012240F225516F4800F011
:1004B000B4FD012240F227716C4800F0AEFD01212D
:1004C0006A4800F09EFD1FBD10B50446FFF7B8FF57
:1004D0002046FFF7D5FF10BD10B565480088401CC9
:1004E00040F2FF1390FBF3F403FB140081B2614868
:1004F0000288914201D0012010BD0020FCE770B5B8
:100500000546FFF7E9FF08B1012000E0002006469C
:1005100026B357480488002240F22551534800F082
:100520007CFD002240F22771504800F076FD5248D1
:100530000555601CC11700EBD1514912A0EB4121B8
:100540004B4A1180012240F22551484800F065FDD8
:10055000012240F22771454800F05FFD304670BD32
:100560004648018846480288914201D001207047E0
:100570000020FCE710B5002240F225513B4800F076
:100580004CFD002240F22771384800F046FD3D48FE
:100590003B490988445C3A490988481CC11700EB6B
:1005A000D1514912A0EB4121354A1180012240F27C
:1005B00025512E4800F031FD012240F227712B48D1
:1005C00000F02BFD204610BD70B540F225512748A4
:1005D00000F008FEF8B129490988481CC11700EB52
:1005E000D1514912A0EB41218CB2254805881F4802
:1005F00000F078FDC6B2AC4206D1002240F225518F
:100600001A4800F00AFD05E01E481C4909884654B6
:100610001A48048000BF40F22771144800F0E2FD40
:1006200008B31448048812480088A04206D100226A
:1006300040F227710D4800F0F0FC13E00E480D4920
:100640000988455C2946094800F048FD09490988A0
:10065000481CC11700EBD1514912A0EB4121054ABA
:10066000118000BF00BF70BD00080140003801408C
:1006700014000020160000209C070020100000201D
:10068000120000209C05002031490143314A1160CD
:10069000704770B5002100230F22C47804B32D4C9D
:1006A000246804F4E064C4F5E064210AC1F10403A1
:1006B000CA40447804FA03F18478144021430901C4
:1006C000254C0678A155047804F01F050124AC40A0
:1006D00005786D11AD0005F1E025C5F8004109E090
:1006E000047804F01F050124AC401C4D06787611F7
:1006F00045F8264070BD1A4A0A400243154B1B1F9D
:100700001A60704739B1134A121D12680243114B27
:100710001B1D1A6006E00F4A121D126882430D4B22
:100720001B1D1A607047042808D14FF0E0210969A9
:1007300041F004014FF0E022116107E04FF0E021A9
:10074000096921F004014FF0E022116170470000B7
:100750000000FA050CED00E000E400E080E100E0BC
:1007600080FFFF1F10B50446CC48844208D1012108
:10077000042000F02DFB0021042000F029FB46E0BE
:10078000C748844208D10121082000F021FB002144
:10079000082000F01DFB3AE0C248844208D1012144
:1007A000102000F015FB0021102000F011FB2EE0BE
:1007B000BD48844208D10121202000F009FB00211E
:1007C000202000F005FB22E0B848844208D1012136
:1007D000402000F0FDFA0021402000F0F9FA16E078
:1007E000B348844208D10121802000F0F1FA0021B1
:1007F000802000F0EDFA0AE0AE48844207D10121E2
:10080000801500F0E5FA0021A01500F0E1FA10BD16
:1008100010B50121084600F0DBFA0021012000F0AC
:10082000D7FA10BD2DE9F041024600250026002030
:1008300000230024002791F803C00CF00F0591F865
:1008400003C00CF0100CBCF1000F03D091F802C0F3
:100850004CEA050591F800C0BCF1000F31D01468D6
:1008600000202BE04FF0010C0CFA00F3B1F800C0AF
:100870000CEA03069E4220D183004FF00F0C0CFAC5
:1008800003F7BC4305FA03FC4CEA040491F803C0E7
:10089000BCF1280F06D14FF0010C0CFA00FCC2F895
:1008A00014C00AE091F803C0BCF1480F05D14FF025
:1008B000010C0CFA00FCC2F810C0401C0828D1D36F
:1008C0001460B1F800C0BCF1FF0F34DD54680020A3
:1008D0002EE000F1080C4FF0010808FA0CF3B1F813
:1008E00000C00CEA03069E4221D183004FF00F0C9A
:1008F0000CFA03F7BC4305FA03FC4CEA040491F834
:1009000003C0BCF1280F05D100F1080C08FA0CF85F
:10091000C2F8148091F803C0BCF1480F07D100F170
:10092000080C4FF0010808FA0CF8C2F81080401CBF
:100930000828CED35460BDE8F0814FF6FF710180E6
:10094000022181700421C170704702460020936823
:100950000B400BB1012000E0002070470146886881
:1009600080B2704702460020D3680B400BB10120D3
:1009700000E0002070470146C86880B270470161FE
:100980007047416170470AB1016100E04161704701
:10099000C16070474FF480320A4382618161826195
:1009A00082698269704702460020434B18684FF6FF
:1009B0008073184040EA021008433F4B18607047AC
:1009C0003E49C8617047F0B50A4600230024002163
:1009D000002500F00046B6F1004F02D1364EF16915
:1009E00001E0354E7168C0F3034583B200F4401650
:1009F000B6F5401F08D121F070612F4E766826F0C1
:100A000070662D4F7E6012E000F48016B6F5801FF0
:100A100006D1032606FA05F4A14341F0706106E011
:100A2000460D360103FA06F6B14341F0706122B17A
:100A3000460D360103FA06F6314300F00046B6F1E2
:100A4000004F02D11C4EF16101E01B4E7160F0BD00
:100A500030B500228B071C0F0F2303FA04F2164B4C
:100A600008338C1053F824309343134C08348D1002
:100A700044F8253023468C1053F824308C07240F7B
:100A800000FA04F423430C4C08348D1044F825304C
:100A900030BD0A49DC3108607047000000080140A1
:100AA000000C0140001001400014014000180140FA
:100AB000001C0140002001400000014000002042D5
:100AC000DF48006840F00100DD49086008464068E2
:100AD000DC490840DA49486008460068DA490840BD
:100AE000D74908600846006820F48020086008465E
:100AF000406820F4FE0048604FF41F008860704793
:100B0000CF49096821F48031CD4A11601146096846
:100B100021F480211160B0F5803F03D0B0F5802F23
:100B20000ED106E0C649096841F48031C44A11601B
:100B300007E0C349096841F4A021C14A116000E0FF
:100B400000BF00BF704710B50146002200230020FF
:100B50004A11012A02D1BA4C236806E0022A02D1C6
:100B6000B74C236A01E0B64C636A01F01F0201240E
:100B700094401C400CB1012000E0002010BD38B5AD
:100B8000002000900024002500BF3120FFF7DBFF8C
:100B900005460098401C00900098B0F5A06F01D069
:100BA000002DF2D03120FFF7CEFF08B1012400E084
:100BB0000024204638BD01460020A14A106820F0DC
:100BC000F80040EAC10010607047A0490860704713
:100BD000024600209A4B586820F47C1042EA010338
:100BE0001843974B5860704798490866704701460C
:100BF0000020934A506820F003000843506070477B
:100C00008F48406800F00C007047014600208C4A75
:100C1000506820F0F0000843506070470146002003
:100C2000874A506820F4E0600843506070470146EE
:100C30000020834A506820F4605040EAC1005060B0
:100C4000704729B17E4A527A02437D4B5A7204E0C2
:100C50007B4A527A82437A4B5A7270477B49D83129
:100C60000860704701460020754A506820F44040F3
:100C70000843506070470021714A20321170704A59
:100C800082F82010012802D004280AD104E00121B2
:100C90006B4A2032117005E00521694A203211703B
:100CA00000E000BF00BF70476949086070476449B1
:100CB000096A0143624A1162704765494439086014
:100CC000704730B500210022002400235C4D6D6880
:100CD00005F00C0121B1042905D0082923D105E034
:100CE0005C4D056022E05B4D05601FE0544D6D6872
:100CF00005F47012524D6D6805F48034022505EB41
:100D000092421CB9544D554305600BE04C4D6D6843
:100D100005F400351DB1504D5543056002E04D4DC1
:100D20005543056002E04B4D056000BF00BF444DD8
:100D30006D6805F0F0010909484D6B5C0568DD4000
:100D400045603F4D6D6805F4E061090A434D6B5CF9
:100D50004568DD4085603A4D6D6805F46051C90A0B
:100D60003E4D6B5C4568DD40C560354D6D6805F4F2
:100D70004041890B3A4D6B5CC568B5FBF3F50561E5
:100D800030BD29B12E4A526902432D4B5A6104E00D
:100D90002B4A526982432A4B5A61704729B1284A2B
:100DA00092690243264B9A6104E0254A9269824384
:100DB000234B9A61704729B1214AD2690243204BE3
:100DC000DA6104E01E4AD26982431D4BDA61704742
:100DD00029B11B4AD2680243194BDA6004E0184A71
:100DE000D2688243164BDA60704729B1144A1269FF
:100DF0000243134B1A6104E0114A12698243104BFB
:100E00001A61704712494039086070470F49C86439
:100E100070470B49C87170470948406A40F08070BC
:100E200007494862704701460020054A92680A4017
:100E30000AB1012000E00020704701498872704724
:100E4000001002400000FFF8FFFFF6FE00004242E3
:100E50008004424200127A0000093D001800002080
:100E60002800002010B50446FB48844209D1012126
:100E70008803FFF7ADFF00214FF48040FFF7A8FF84
:100E800032E0F648844209D101214804FFF7ADFF62
:100E900000214FF40030FFF7A8FF25E0F04884421E
:100EA00009D101218804FFF7A0FF00214FF4802021
:100EB000FFF79BFF18E0EB48844209D10121C804E9
:100EC000FFF793FF00214FF40020FFF78EFF0BE0A8
:100ED000E548844208D101210805FFF786FF00217B
:100EE0004FF48010FFF781FF10BD2DE9F04786B069
:100EF00005460E460024A24600BFA1460027B08941
:100F000000B100BF2F462C8A4CF6FF700440F088D9
:100F100004432C82AC894EF6F3100440B08831892A
:100F20000843718908430443AC81AC8A4FF6FF4003
:100F30000440B0890443AC8201A8FFF7C2FEC64852
:100F4000874202D1DDF810A001E0DDF80CA0A889ED
:100F500000F4004040B10AEBCA0000EB0A1031680F
:100F60004900B0FBF1F807E00AEBCA0000EB0A10F9
:100F700031688900B0FBF1F86420B8FBF0F004019F
:100F80002009642101FB1089A88900F4004040B1C8
:100F9000322000EBC900B0FBF1F000F00700044381
:100FA00008E0322000EB09106421B0FBF1F000F002
:100FB0000F0004432C8106B0BDE8F0874FF41651B2
:100FC000016000218180C18001810C2141810021CB
:100FD0008181704710B502460020108A4FF2FF034E
:100FE00018400B884C8823438C882343CC882343A8
:100FF0001843108210BD0021018041808180C18092
:10100000704721B1828942F40052828104E08289D2
:101010004DF6FF731A4082817047F0B503460024F5
:1010200000260025002040F66A17B94200D100BF13
:101030001846C1F3421401F01F06012707FA06F50E
:10104000012C01D10C3004E0022C01D1103000E061
:1010500014301AB107682F43076002E00768AF43F6
:101060000760F0BD1AB1838A0B43838202E0838A52
:101070008B4383827047028A4FF6F0731A400282D4
:10108000028A0A430282704782894FF2FF731A4034
:10109000828182890A438281704721B1828942F02C
:1010A0000202828104E082894FF6FD731A40828138
:1010B0007047028A4FF6DF731A400282028A0A439F
:1010C0000282704721B1028A42F48042028204E027
:1010D000028A4BF6FF731A4002827047C1F308027E
:1010E0008280704701468888C0F308007047818974
:1010F00041F0010181817047028BD2B20283028BE1
:1011000042EA012202837047028B02F47F4202838B
:10111000028B0A430283704721B1828A42F0200287
:10112000828204E0828A4FF6DF731A40828270471F
:1011300021B1828A42F01002828204E0828A4FF654
:10114000EF731A408282704721B1828A42F008020E
:10115000828204E0828A4FF6F7731A4082827047D7
:1011600021B1828942F40042828103E08289C2F384
:101170000E028281704721B1828A42F4006282822B
:1011800004E0828A4FF2FF731A4082827047828A9B
:101190004FF6FB731A408282828A0A43828270472A
:1011A00021B1828A42F00202828204E0828A4FF6F2
:1011B000FD731A408282704702460020B1F5007F1D
:1011C00000D100BF13880B400BB1012000E00020CC
:1011D000704701F40072B2F5007F00D100BFCA432E
:1011E0000280704770B502460024002300250020CD
:1011F00040F66A16B14200D100BFC1F3421501F0BA
:101200001F03012606FA03F3012D02D1968933400C
:1012100006E0022D02D1168A334001E0968A33405F
:101220000C12012606FA04F41688344013B10CB1EE
:10123000012000E0002070BD10B50022002340F620
:101240006A14A14200D100BF0A1201249440A3B243
:10125000DC43048010BD0000003801400044004021
:1012600000480040004C0040005000400CB50020F9
:10127000019000906C48006840F480306A49086032
:1012800000BF6948006800F4003000900198401CDD
:101290000190009818B90198B0F5A06FF1D162489B
:1012A000006800F4003010B10120009001E000203F
:1012B00000900098012843D15C48006840F010007D
:1012C0005A4908600846006820F003000860084694
:1012D000006840F002000860534840685249486086
:1012E0000846406848600846406840F480604860AE
:1012F0000846406820F47C1048600846406840F486
:10130000E81048600846006840F08070086000BF40
:101310004548006800F000700028F9D04248406855
:1013200020F00300404948600846406840F0020051
:10133000486000BF3C48406800F00C000828F9D124
:101340000CBD10B5FFF792FF10BD10B53648006810
:1013500040F00100344908600846406834490840BC
:101360003149486008460068324908402E49086003
:101370000846006820F4802008600846406820F491
:10138000FE0048604FF41F008860FFF7DAFF4FF05F
:1013900000602949086010BD10B50021002000221E
:1013A000214B5B6803F00C0121B1042906D0082908
:1013B00028D107E0214B224C236027E01F4B204C13
:1013C000236023E0184B5B6803F47010164B5B68D6
:1013D00003F48032022303EB904022B9194B4343BC
:1013E000174C23600DE0104B5B6803F4003323B10E
:1013F000144B4343124C236003E0104B4343104C07
:10140000236003E00D4B0E4C236000BF00BF064B72
:101410005B68C3F303130C4CE15C094B1B68CB40C6
:10142000074C236010BD0000001002400020024065
:101430000000FFF8FFFFF6FE08ED00E000127A0062
:101440002C00002000093D003000002070B5224D26
:101450000C68B4FBF5F605FB16430C68B4FBF5F21B
:101460000468144404600B6070BD30B504460D463A
:10147000194895FBF0F02060174895FBF0F100FB50
:1014800011506060211D2046FFF7E0FF204630BD6F
:1014900030B504460D46206829680844206060681D
:1014A000696808446060211D2046FFF7CFFF204691
:1014B00030BD30B504460D462068296849420844CD
:1014C000206060686968494208446060211D2046C8
:1014D000FFF7BCFF204630BD00CA9A3B70B50D46F1
:1014E0000646041F00F086F9D0F800C0C5B1E6B189
:1014F00005F10B0020F00703AB423CBF002070BD9C
:101500002068984238BFDCF8042013D3C11A082998
:101510002FD3E01840F8041B236000F0E5F928E021
:10152000304600F0E1F9002070BD2846BDE870406B
:1015300000F0ABB9002A18BFA2423CBF94465268E3
:10154000F8D30119914216D111680844984212D378
:10155000C11A08293CBF2060506808D35168E018C0
:101560004160216812681144C91A01602360CCF8F7
:101570000400201D70BD181F00F087F9050007D07A
:1015800021680A1F211D00F0EDF8201D00F0ACF9C4
:10159000284670BD0FB41CB5074B06AA7B446946AC
:1015A0000090059800F025FA0020694600F034FA12
:1015B0001CBC5DF814FB0000790400002DE9F0412B
:1015C0000E460446002020622046E168884730B37A
:1015D000252805D0D4E901219047206A401CF2E774
:1015E000E168204600278847050018D0A5F1410092
:1015F000192802D820354FF4006732462946204684
:101600002760FEF7ADFD40B1012804D0F61D26F09D
:1016100007060836D8E7361DD6E72846DAE7206AF7
:10162000BDE8F0812DE9F0410646002410687529D7
:10163000314616A510D0AFF30080002802DA4042F0
:1016400013A507E031688A0701D512A502E0490712
:1016500004D511A5012401E0AFF3008000210A2286
:1016600006F1240709E0B0FBF2FCB0FBF2F302FB49
:101670001C00303078541846491C0028F3D123460A
:101680002A463046BDE8F04100F055B900000000A0
:101690002D0000002B0000002000000010B5431CAE
:1016A00002E010F8011B71B18107FAD14FF001324D
:1016B00002C88C1A8C4314EAC211F9D0C01A0A0667
:1016C00003D0C01E10BDC01A10BD0A0401D0801E78
:1016D00010BD0902FCD0401E10BD032A40F230802C
:1016E00010F0030C00F0158011F8013BBCF1020F63
:1016F000624498BF11F801CB00F8013B38BF11F8E4
:10170000013BA2F1040298BF00F801CB38BF00F8FA
:10171000013B11F0030300F02580083AC0F0088077
:1017200051F8043B083A51F804CBA0E80810F5E75B
:10173000121D5CBF51F8043B40F8043BAFF300803E
:10174000D20724BF11F8013B11F801CB48BF11F8B3
:10175000012B24BF00F8013B00F801CB48BF00F883
:10176000012B704710B5203AC0F00B80B1E818503B
:10177000203AA0E81850B1E81850A0E81850BFF47B
:10178000F5AF5FEA027C24BFB1E81850A0E818501A
:1017900044BF18C918C0BDE810405FEA827C24BF6E
:1017A00051F8043B40F8043B08BF7047D20728BFFC
:1017B00031F8023B48BF11F8012B28BF20F8023B4B
:1017C00048BF00F8012B7047704770477047000012
:1017D00070B5064C7C44064D7D4403E020682044EF
:1017E0008047241DAC42F9D170BD00006811000093
:1017F0006811000000487047A40900207047704736
:101800007047704738B504460A4600206946AFF372
:101810000080002808BF38BD02460099204600F02D
:1018200012F9012038BD012000F02CB9F8B5AFF352
:101830000080054600200C46102000BF0646A8196F
:10184000A0420DD9324669460020AFF30080070060
:1018500008BF00F017F90098A04218BF0546C41948
:10186000FFF7C8FF05600746F01D20F00700461986
:10187000284600F0E1F8B44208BFF8BDA21B31468B
:101880003868BDE8F84000F0DEB870B50646FFF7EE
:10189000B1FF056806F10B0020F00704B4429CBFBD
:1018A000002070BD2B466A68BAB11068A04210D300
:1018B00004F1080188423CBF5068586007D3516862
:1018C000101941601168091B016058601460101DF7
:1018D00070BD13465268002AE7D121462846FFF71B
:1018E00091FF0028DED170BD70B50446051FFFF7DB
:1018F00081FF0068002C14BF446870BD002C18BF25
:10190000AC423CBF20466468F8D301680A18AA427A
:1019100018BF456003D12A68054611440160286854
:101920004119A1421CBF6C6070BD6168696021688B
:101930000844286070BD2DE9F0470D46994692464F
:10194000044600F124080168880604D5E06921F006
:101950001001216000E00120A84201DD471B00E0EA
:101960000027A1697A1902EB0900081AA061207802
:10197000C00602D42046AFF30080002608E0D4E978
:1019800001211AF806009047206A401C761C20624C
:101990004E45F4DB2078C0060AD52046AFF3008020
:1019A00006E0D4E9012130209047206A401C2062E3
:1019B000381EA7F10107F4DC07E0D4E9012118F88B
:1019C00005009047206A401C2062281EA5F10105F1
:1019D000F3DC2046AFF300802078000602D5022019
:1019E000BDE8F0870120FBE701694A1C0261087825
:1019F000704700B58FB0CDE901310021059105494F
:101A00007944CDE9031011466846FFF7D7FD0FB0C2
:101A100000BD0000E5FFFFFF0A6802F8010B0A6045
:101A2000704710B500F036F8BDE8104000F025B85A
:101A3000004870479C09002000210160C0E90110A6
:101A4000704710207047034640688C46002818BF36
:101A500088423CBF03464068F8D31868184488425F
:101A600007D00CF1030020F00700001D411A521AA4
:101A70000146081D0A60FFF737BF002801D000F0BB
:101A800021B8704710B500F06BF8BDE81040FFF7C3
:101A9000F4BF000010B5002102A000F047F80120BB
:101AA00010BD00005349475056464E3A20507572BB
:101AB00065207669727475616C20666E2063616C56
:101AC0006C65640001491820ABBEFEE726000200E9
:101AD0007546FFF7ADFFAE4605006946534620F058
:101AE0000700854618B020B5FEF766FBBDE820402C
:101AF0004FF000064FF000074FF000084FF0000BCA
:101B000021F00701AC46ACE8C009ACE8C009ACE87C
:101B1000C009ACE8C0098D46704710B50446AFF364
:101B200000802046BDE81040FEF732BB70B5054688
:101B30000C460A2000E06D1C00F03AF835B1287818
:101B40000028F8D102E0641C00F032F814B12078CB
:101B50000028F8D1BDE870400A2000F029B8000044
:101B600010B5012805D0002103A0FFF7DFFF0120F9
:101B700010BD09A1F8E7000053494752544D454DA7
:101B80003A204F7574206F662068656170206D651E
:101B90006D6F7279000000003A2048656170206D19
:101BA000656D6F727920636F727275707465640011
:101BB00008B569468DF800000320ABBE08BD70472C
:101BC00010B50446FEF724FC10BD2DE9F843044689
:101BD0000E46002528466D1C16F8009020794845D1
:101BE00005DA4FEA8901E068FFF778FCE060ED1C58
:101BF00084F80490002020E000210091725D00999B
:101C00001143009172195278009941EA0221009122
:101C100072199278009941EA024100917219D278C2
:101C2000009941EA026100910099A1602D1DD4E95B
:101C3000022141F82020411CC8B221798142DBDC1D
:101C400028466D1C375C207CB84204DAB900A069D4
:101C5000FFF744FCA061ED1C2774002020E0002168
:101C60000091725D009911430091721952780099A8
:101C700041EA0221009172199278009941EA0241E9
:101C800000917219D278009941EA0261009100999D
:101C900061612D1DD4E9052141F82020411CC8B205
:101CA000217C8142DBDC28466D1C16F80080207FF9
:101CB000404505DA4FEA8801606AFFF70FFC606271
:101CC000ED1C84F81C8000211BE0701902682D1D9A
:101CD000284605E016F800C0431E06F803C0401C65
:101CE000AB188342F6D80023A818401E335470194D
:101CF000401E20621544D4E9083040F82130481CC9
:101D0000C1B2207F8842E0DC2846BDE8F8830000AD
:101D10000146014870470000F827000801460148C5
:101D200070470000F4260008014601487047000093
:101D30001928000801460148704700003A280008A9
:101D400001460148704700004D280008014601483F
:101D5000704700006E2800080149016070470000CC
:101D6000B827000810B5024600200B5C53600C1821
:101D70006478536843EA042353600C18A4785368CA
:101D800043EA044353600C18E478536843EA04635D
:101D90005360001D0C5C94600C186478936843EAEF
:101DA000042494600C18A478936843EA0444946073
:101DB0000C18E478936843EA04649460001D10BD35
:101DC0000146014870470000C0280008014601484C
:101DD00070470000E128000810B504462046FFF7D0
:101DE000BBFF044604482060201D002101604160C3
:101DF00000BF041F204610BDD027000870B5044660
:101E000000200A181368001D024603E08E5C551E70
:101E10004E55521CC5189542F8D80025C218521EBE
:101E20008D540A18521E6260184470BD0146014864
:101E300070470000EF280008014601487047000085
:101E40001029000810B504462046FFF785FF044618
:101E500001482060204610BDE82700082DE9F8431E
:101E600006460D46002432792046641C2A5400227E
:101E70002146641C6A542046641C2A542046641C73
:101E80002A54002014E0F16851F8201000910099C4
:101E900029550099090A2A1951700099090C2A1923
:101EA00091700099090E2A19D170241D411CC8B2E5
:101EB00031798142E7DC327C2046641C2A540022BE
:101EC0002146641C6A542046641C2A542046641C23
:101ED0002A54002014E0B16951F8201000910099B3
:101EE00029550099090A2A1951700099090C2A19D3
:101EF00091700099090E2A19D170241D411CC8B295
:101F0000317C8142E7DC327F2046641C2A54002267
:101F10002046641C2A542046641C2A542146641C12
:101F20006A54002713E0716A51F82700FFF7B6FBE7
:101F300080462819C0F80080241D726A52F82710C4
:101F400028194246FFF7C9FB4444781CC7B2307FCA
:101F5000B842E8DC2046BDE8F8832DE9F0410546AB
:101F60000E46002428793055641CA868FFF796FBBC
:101F7000074630190760241D30193A46A968FFF753
:101F8000ACFB3C442046BDE8F0812DE9F843064611
:101F90000D46002430792855B088000A2919487068
:101FA000A41CB068FFF77AFB074628190760241DB8
:101FB00028193A46B168FFF790FB3C44F068FFF7F8
:101FC0006DFB80462819C0F80080241D2819424660
:101FD000F168FFF782FB44443069FFF75FFB8146FD
:101FE0002819C0F80090241D28194A463169FFF7C6
:101FF00074FB4C4470690090009828550098000AC2
:10200000291948700098000C291988700098000E52
:102010002919C870241D2046BDE8F88310B5024672
:10202000002013790B5493881B0A0C1863705368B3
:102030001B0C0C18A37053681B0E0C18E370001DCA
:10204000137A0B5413891B0A0C18637093681B0CCA
:102050000C18A37093681B0E0C18E370001D10BDC4
:102060002DE9F04105460E4600246868FFF716FB8F
:10207000074630190760241D30193A466968FFF792
:102080002CFB3C442046BDE8F0810020FFF7C9BC92
:10209000014600BF004870471029000801468869C2
:1020A000704770B504460D46294604F10C00FFF751
:1020B000A5FE04F10C006169884770BD014600BFB0
:1020C00000487047EF28000870B586B004466E4699
:1020D0003046FFF741FE06464348306000253DE0AC
:1020E00004F2144050F82500B8B304F2144050F83C
:1020F0002500008980B2ADF8040004F2144050F8C5
:1021000025000068029004F2144252F8252050681D
:1021100004F2144252F825205268126891688847E8
:10212000039004F2144252F82520506804F214423D
:1021300052F8252052681268D168884704904FF4FD
:102140000070059004F2144151F8250001690E4613
:1021500020686A460368204698476D1C192DBFDB2E
:1021600000253AE004F58F6050F82500A0B304F58F
:102170008F6050F82500808880B2ADF8040004F527
:102180008F6050F825008068029004F58F6252F845
:10219000250052F82520126891688847039004F5BD
:1021A0008F6252F8250052F825201268D1688847BE
:1021B00004904FF40070059004F58F6252F82500EA
:1021C00052F82520126851688847064620686A46FA
:1021D00031460368204698476D1C192DC2DB01204B
:1021E00084F8F00406B070BD482700083EB50446E8
:1021F0006846FFF7F1FD20686A460A210368204619
:102200009847201DFFF7DCFCA0603EBD2DE9FE4F86
:1022100004460F469146642F05DB94F8F00410B98C
:102220000020BDE8FE8FD9F8000004F21B210268EF
:10223000484690470546FF2084F81402FE2140F2EC
:1022400015200155401C0555C5F30721401C0155BB
:10225000411E0A5D0146095D5018C11700EB11616E
:102260000912A0EB0121C1F1FF01CAB24FF40671BE
:102270000A55481C0755C7F30721401C0155002685
:10228000052004E004F50571095C0E44401CE91DBD
:102290008842F7D3ED1D3046F11706EB11610912A4
:1022A000A6EB0121C1F1FF01CBB229466D1C04F55B
:1022B00005725354B5F5007F14D89246AB464FF0E3
:1022C00000080AE000BFFEF707F90028FBD01AF863
:1022D0000800FEF714F908F10108D845F2DB00BF49
:1022E00028469EE7DFF834804FF0030BEA4650465D
:1022F000FFF732FD82460A48CAF800008DF804B0A4
:10230000CDF8088020686A46072103682046984770
:1023100000BF00BF4FF0FF3083E7000087280008B0
:102320003027000870B50446201DFFF749FC06461B
:10233000D4F8F804301A42F6F821884202D9002075
:1023400084F8F004D4F8DC0430B1D4F8FC04B042D2
:1023500002D20020C4F8DC0410E100BFFEF700F94F
:1023600010B1FEF707F901E04FF0FF300546002DF0
:1023700000DA04E1D4F8EC042844C4F8EC04D4F8FE
:10238000DC04072814D1D4F8E824501CC4F8E8046D
:1023900004F114008554D4F8E004401EC4F8E004AD
:1023A000D4F8E004002802D10820C4F8DC04E4E0FA
:1023B000D4F8DC04B0B9FF2D09D1D4F8DC04401CFA
:1023C000C4F8DC0406F11400C4F8FC04D5E0201DB8
:1023D000FFF7F6FB801B0528E9D9002084F8F004FC
:1023E000801E70BDD4F8DC04012812D1FE2D05D169
:1023F000D4F8DC04401CC4F8DC04BEE00020C4F8BF
:10240000DC0494F8F0040028D1D12046FFF7EEFE5A
:10241000B3E0D4F8DC0402280BD104F2DC4465609C
:102420000020E0602068401C20602561A4F2DC44AC
:10243000A3E0D4F8DC0403280BD1D4F8E00400EBCB
:102440000520C4F8E004D4F8DC04401CC4F8DC0423
:1024500093E0D4F8DC04042813D1D4F8EC04C117B9
:1024600000EB11610912A0EB0121FF2905D1D4F87D
:10247000DC04401CC4F8DC047FE00020C4F8DC0469
:102480007BE0D4F8DC04052809D1C4F8E454D4F87E
:10249000DC04401CC4F8DC04C4F8EC546DE0D4F84F
:1024A000DC0406280FD1D4F8E40400EB0520C4F8BE
:1024B000E4040720C4F8DC04D4F8E00468BB082076
:1024C000C4F8DC0459E0D4F8DC04082855D1002015
:1024D000C4F8DC04D4F8EC04C11700EB1161091254
:1024E000A0EB0121FF2948D1D4F8E40460B92046CB
:1024F000FFF77CFE2046FFF7E7FDC4F8F464C4F85C
:10250000F8644FF0FF306CE7D4F8E4040A2805D1F2
:1025100004F11401204600F045F82EE0D4F8E4045C
:10252000062809D104F1140104F20450FFF74DFB11
:10253000012084F8000520E0D4F8E4040B2803D13E
:10254000002084F8F00418E0D4F8E404643804F5BA
:102550008F6151F8200080B1D4F8E414643904F597
:102560008F6353F82100D4F8E414643953F8211030
:1025700009680A6804F11401904700BFEDE600BF46
:1025800094F8F00458B1D4F8F404301A40F6C411A9
:10259000884204D92046FFF729FEC4F8F4640020DD
:1025A0001FE700002DE9FE43044688466846FFF712
:1025B00013FC201DFFF704FBA168461A414668463C
:1025C000FFF7D0FB4FF47A70B6FBF0F001990844A6
:1025D00001904FF47A70B6FBF0F100FB116043F606
:1025E00009514843029901EB8011029101AD201D70
:1025F000FFF7E6FA07464FF47A70B7FBF0F0296868
:10260000081A401EE0604FF47A70B7FBF0F100FB4F
:10261000117043F6095148436968A1EB80100849DD
:102620000844206104F11001081FFEF70FFF00BFEE
:10263000201DFFF7C5FAC4F8F804BDE8FE830000CA
:1026400000CA9A3B70B50446274928482060201DDF
:1026500000BF041F002084F8F00404F2045528464B
:10266000FFF77AFB05462248A5F2045428600020B3
:1026700005E0002204F2144141F82020401C1928F2
:10268000F7D3002005E0002204F58F6141F82020F7
:10269000401C1928F7D3002004E0002204F11401A3
:1026A0000A54401CB0F5007FF7D3002004E000225C
:1026B00004F505710A54401CB0F5007FF7D30021E2
:1026C0004FF4A16001554FF4A2600151001D015566
:1026D00040F21C5001514FF4A16001554FF4A2602B
:1026E0000151204670BD0000A4270008782700088B
:1026F00018270008726F7373657269616C5F6D7380
:1027000067732F52657175657374506172616D00E6
:1027100000000000000000005D1E0008CB1B000848
:102720001D1D0008111D0008000000000000000031
:102730005B1F000800000000351D0008291D00086F
:1027400000000000000000008B1F000800000000D7
:102750004D1D0008411D00080000000000000000A1
:10276000A32000089D20000891200008BD2000083B
:1027700000000000000000000D22000825230008D2
:102780000000000000000000000000008B20000896
:102790008B2000088B2000088B2000080000000020
:1027A000000000008B2000088B2000088B20000810
:1027B00000000000000000008B2000088B200008B3
:1027C0008B2000088B2000080000000000000000A3
:1027D0001D200008651D0008CD1D0008C11D000852
:1027E000000000000000000061200008FD1D00083E
:1027F000391E00082D1E00083966306539386264BC
:102800006136353938313938366464663533616656
:102810006137613430653439003131616264373396
:1028200031633235393333323631636436313833DC
:1028300062643132643632393500726F7373657297
:1028400069616C5F6D7367732F4C6F6700306164F3
:102850003531663838666334343839326638633136
:102860003036383430373736343630303500726FE2
:102870007373657269616C5F6D7367732F546F70EA
:102880006963496E666F004D6573736167652066A5
:10289000726F6D206465766963652064726F707015
:1028A00065643A206D657373616765206C6172675A
:1028B0006572207468616E206275666665722E00AE
:1028C00063643731363663373463353532633331D9
:1028D0003166626363326665356137626332383907
:1028E000007374645F6D7367732F54696D6500398D
:1028F0003932636538613136383763656338633838
:10290000626438383365633733636134316431006E
:102910007374645F6D7367732F537472696E6700AD
:1029200044290008000000204000000028010008A1
:102930008429000840000020C00F00004401000866
:102940007DD9FFFF00000000000000000000000033
:102950000000000000000000000000000000000077
:102960000102030401020304060708090204060821
:1029700000A24A040000000000000000010203045D
:042980000607080935
:04000005080000ED02
:00000001FF
